:020000040800F2
:10000000286E0020E9020008BD2D0008E72900083D
:10001000B92D00081F060008C534000800000000C4
:10002000000000000000000000000000290200089D
:10003000950800080000000085020008E92D00086E
:100040000303000803030008030300080303000878
:100050000303000803030008030300080303000868
:100060000303000803030008030300080303000858
:100070000303000803030008030300080303000848
:1000800003030008030300080303000845060008F3
:1000900025060008350600080303000803030008CE
:1000A00003030008C92E0008030300080303000827
:1000B000D92E0008E92E00080303000803030008F6
:1000C00003030008030300080303000803030008F8
:1000D0000303000803030008B53400080303000805
:1000E00003030008030300080303000803030008D8
:1000F00003030008030300080303000803030008C8
:1001000003030008030300080303000803030008B7
:1001100003030008030300080303000803030008A7
:100120000303000803030008030300080303000897
:10013000030300080000000000000000750600082E
:1001400055060008650600080303000803030008BD
:100150000303000803030008030300080303000867
:100160000303000803030008030300080303000857
:100170000303000803030008000000000000000063
:10018000030300080303000800F002F800F03CF845
:100190000AA090E8000C82448344AAF10107DA45E2
:1001A00001D100F031F8AFF2090EBAE80F0013F0F8
:1001B000010F18BFFB1A43F001031847785E0000D7
:1001C000985E0000103A24BF78C878C1FAD8520768
:1001D00024BF30C830C144BF04680C6070470000C1
:1001E0000023002400250026103A28BF78C1FBD840
:1001F000520728BF30C148BF0B6070471FB505F0DC
:10020000B3FE1FBD10B510BD00F0D0F91146FFF7C9
:10021000F5FF03F043FE00F0EEF903B4FFF7F2FF41
:1002200003BC00F0F5F900002C4B19680868B0E831
:10023000F04F80F30988BFF36F8F4FF0000080F319
:10024000118870470000000008480068006880F3CB
:1002500008884FF0000080F3148862B661B6BFF3DF
:100260004F8FBFF36F8F00DF00BF00BF08ED00E0CE
:10027000DFF80C00016841F470010160704700BFB5
:1002800088ED00E0EFF30980BFF36F8F134B1A681E
:100290001EF0100F08BF20ED108A20E9F04F10600B
:1002A00009B44FF0500080F31188BFF34F8FBFF3B4
:1002B0006F8F04F039FF4FF0000080F3118809BC04
:1002C00019680868B0E8F04F1EF0100F08BFB0ECD6
:1002D000108A80F30988BFF36F8F704740000020B9
:1002E000EFF3058070470000094880470948004740
:1002F000FEE7FEE7FEE7FEE7FEE7FEE7FEE7FEE7D6
:10030000FEE7FEE704480549054A064B7047000032
:10031000B52E00088901000828680020286E0020FA
:10032000286A0020286A002053EA020C00F0698045
:100330002DE9F04B4FF00006002B1FBFB3FA83F5F9
:1003400003FA05F424FA05F65E4012BF1643B2FA2A
:1003500082F502FA05F4C5F120051EBF22FA05FC5C
:1003600044EA0C04203556EA044C4FEA144418BF02
:10037000641C4FF000084FF00009904271EB030C31
:1003800039D3002919BFB1FA81F701FA07F6B0FA9B
:1003900080F700FA07F6C7F120071EBF20FA07FC16
:1003A00046EA0C062037B6FBF4FCA7EB0507103F26
:1003B00007F01F0BCBF120060CFA0BFB2CFA06F60C
:1003C00044BFB3460026202FA4BF5E464FF0000B6B
:1003D0005BEA060C08BF4FF0010B19EB0B09ABFBF6
:1003E000027C48EB0608C01B06FB02CC0BFB03CCCF
:1003F00071EB0C01C1E70B46024641464846BDE899
:10040000F08B13B54FF000004FF00001AFF3008008
:10041000BDE81C407047032A40F2308010F0030C06
:1004200000F0158011F8013BBCF1020F624498BF47
:1004300011F801CB00F8013B38BF11F8013BA2F1E4
:10044000040298BF00F801CB38BF00F8013B11F05F
:10045000030300F02580083AC0F0088051F8043BFF
:10046000083A51F804CBA0E80810F5E7121D5CBF6C
:1004700051F8043B40F8043BAFF30080D20724BF9F
:1004800011F8013B11F801CB48BF11F8012B24BF33
:1004900000F8013B00F801CB48BF00F8012B704782
:1004A00010B5203AC0F00B80B1E81850203AA0E80F
:1004B0001850B1E81850A0E81850BFF4F5AF5FEA43
:1004C000027C24BFB1E81850A0E8185044BF18C9F6
:1004D00018C0BDE810405FEA827C24BF51F8043B9D
:1004E00040F8043B08BF7047D20728BF31F8023BF1
:1004F00048BF11F8012B28BF20F8023B48BF00F885
:10050000012B704702F0FF0343EA032242EA024252
:1005100000F02CB84FF0000200B513469446964602
:10052000203922BFA0E80C50A0E80C50B1F1200106
:10053000BFF4F7AF090728BFA0E80C5048BF0CC0B4
:100540005DF804EB890028BF40F8042B08BF704712
:1005500048BF20F8022B11F0804F18BF00F8012B84
:1005600070477047704770474FF000020429C0F091
:10057000128010F0030C3FF4CFAFCCF1040CBCF1AF
:10058000020F18BF00F8012BA8BF20F8022BA1EB27
:100590000C01FFF7C1BF5FEAC17C24BF00F8012B4B
:1005A00000F8012B48BF00F8012B7047754600F09A
:1005B0002BF8AE4605006946534620F007008546F5
:1005C00018B020B5FFF79EFEBDE820404FF00006B2
:1005D0004FF000074FF000084FF0000B21F007012B
:1005E000AC46ACE8C009ACE8C009ACE8C009ACE86E
:1005F000C0098D46704710B50446AFF30080204611
:10060000BDE81040FFF709BE00487047C4670020EE
:1006100001491820ABBEFEE726000200704700BF6C
:10062000FEE7000010B5024800F0A9FB10BD000075
:10063000F81E002010B5024800F0A1FB10BD00001C
:10064000F81E002010B5024800F099FB10BD000014
:10065000F81E002010B5024800F091FB10BD00000C
:10066000201F002010B5024800F089FB10BD0000DB
:10067000201F002010B5024800F081FB10BD0000D3
:10068000201F00204023C360002303618360436078
:10069000027001757047000030B58BB004462069C8
:1006A00000283AD0606800EB800204F1180000EBEB
:1006B0008201142206A8FFF7F3FE6068401CE1687F
:1006C000B0FBF1F201FB120060602069401E206166
:1006D000002507980490089808B906980090089893
:1006E000042801D1069801900020039008980290F8
:1006F0002078012805D12B4609AA6946084800F050
:100700003EF92078022805D12B4609AA69460548FA
:1007100000F035F901200BB030BD0020FBE70000F0
:10072000F81E0020201F00200FB410B50446D4E9A5
:100730000310884221D8207D012804D10498C1B239
:1007400006A800F045F8A16801EB810204F1180148
:1007500001EB8200142203A9FFF7A2FEA068401C4F
:10076000E168B0FBF1F201FB1200A0602069401CBF
:100770002061012010BC5DF814FB0020FAE70000A6
:1007800010B500224FF48061014800F097FF10BDC2
:100790000000024010B501229102024800F08EFFD5
:1007A00010BD0000000002402DE9F04104460D4656
:1007B00017461E46DDF81880A5602760C4F804803F
:1007C0004246314604F10C00FFF725FEBDE8F081FA
:1007D00030B50B460BB1012B00D130BD00215D1EA1
:1007E000EAB207E0445C855C455484544D1CE9B290
:1007F000551EEAB29142F5DB00BFEEE770B5044644
:100800000D4694F8060101282CD184F8015194F882
:1008100001015A281FD10026002003E0215C314449
:10082000CEB2401C94F80211491E8142F6DC002031
:1008300084F8060194F80201401E205CB04209D100
:100840001349204600F027F808B9002070BD0020A9
:1008500084F802010FE094F80211481C84F80201A8
:10086000655408E084F8005194F80001A52802D1ED
:10087000012084F8060194F80201802805DB00209D
:1008800084F8060184F80201E0E70120DEE70000B9
:100890007021002070472DE9F04102460B460021EF
:1008A000002500201EE00646C71700EB5777FF1013
:1008B000D75D2C4605F1010C0CF0FF054FEAE47CF6
:1008C00004EB5C7C4FEAEC0CA4EBCC084FF0010C81
:1008D0000CFA08FC07EA0C070FB1012700E000271B
:1008E0001F54401C0828DEDB012100200AE003F130
:1008F000080404EB40045618368826808C1CE1B2AC
:10090000441CE0B20828F2DB002009E003F11804DF
:1009100004EB80045618366826600C1DE1B2401CBA
:100920000828F3DB002009E003F1380404EB80041D
:100930005618366826600C1DE1B2401C0828F3DB0F
:10094000512902D00020BDE8F0810120FBE772B6FA
:1009500000BFFEE710B5024692F82030012B01D00F
:10096000022B06D1106840690843146860610020BA
:1009700010BD506A40F4802050620120F8E7F0B5C5
:1009800004460D461E4694F8207020688368A868C7
:1009900000B900E000BF012F01D0022F7DD103F08C
:1009A000806030B903F0006018B903F0805000286F
:1009B0007ED0C3F30161012088403060A86860B92F
:1009C000B5F800C0E86840EA4C5C206800F5C070EB
:1009D00000EB0110C0F800C00FE0D5E901C040EA0B
:1009E000CC00D5F80CC040EA0C00D4F800C00CF5DF
:1009F000C07C0CEB011CCCF80000D5F810C02068BE
:100A000000F5C07000EB0110C0F804C0287D01287B
:100A10000ED1206800F5C07000EB0110406840F472
:100A2000807C206800F5C07000EB0110C0F804C0A5
:100A3000D079000692F806C040EA0C4092F805C052
:100A400040EA0C2092F804C040EA0C00D4F800C040
:100A50000CF5C07C0CEB011CCCF80C00D078000627
:100A600092F802C040EA0C4092F801C040EA0C2023
:100A700092F800C040EA0C00D4F800C00CF5C07C2D
:100A80000CEB011CCCF80800206800F5C07000EBEE
:100A90000110006840F0010C01E00FE008E0206860
:100AA00000F5C07000EB0110C0F800C00020F0BDE0
:100AB000606A40F4001060620120F8E7606A40F468
:100AC000802060620120F2E7F0B504460A4694F8FF
:100AD0002050012D01D0022D7ED1424901F5007137
:100AE000086840F001000860086820F47C50086045
:100AF0000868566A40EA06200860107D00F01F066C
:100B0000012000FA06F3C8699843C861A1F5007195
:100B1000D069C8B9D1F80C029843C1F80C0290888A
:100B200080B2968940EA064601F51070576940F890
:100B30003760108880B2168940EA064601F51070C9
:100B4000576900EBC7004660D069012819D1D1F878
:100B50000C021843C1F80C02908880B2168840EA53
:100B6000064601F51070576940F83760908980B2E9
:100B7000168940EA064601F51070576900EBC70078
:100B80004660906928B9D1F804029843C1F804027C
:100B900004E0D1F804021843C1F80402106928B92E
:100BA000D1F814029843C1F8140204E0D1F81402F9
:100BB0001843C1F81402106A012804D1D1F81C02AC
:100BC0001843C1F81C02D1F8000220F00100C1F85E
:100BD00000020020F0BDFFE7606A40F48020606200
:100BE0000120F7E700640040704770B5044694F8B0
:100BF0002050012D01D0022D7DD151B92068C0684F
:100C000000F0030080B9606A40F4001060620120C7
:100C100070BD2068006900F0030028B9606A40F4E4
:100C2000001060620120F3E7206800F5D87000EB47
:100C30000110006800F004009060906840B92068DE
:100C400000F5D87000EB01100068400D106007E05F
:100C5000206800F5D87000EB01100068C0085060F3
:100C6000206800F5D87000EB0110006800F0020069
:100C7000D060206800F5D87000EB0110406800F0EB
:100C80000F00082802D30820106108E0206800F552
:100C9000D87000EB0110406800F00F001061206870
:100CA00000F5D87000EB0110406800F47F40000AA6
:100CB0009061206800F5D87000EB01104068000CCE
:100CC0005061206800F5D87000EB01108068187042
:100CD000206800F5D87000EB0110806800F47F40B8
:100CE000000A5870206800F5D87000EB0110806889
:100CF00000F47F0000E03CE0000C9870206800F5F4
:100D0000D87000EB01108068000ED870206800F5E4
:100D1000D87000EB0110C0681871206800F5D87019
:100D200000EB0110C06800F47F40000A5871206891
:100D300000F5D87000EB0110C06800F47F00000CD3
:100D40009871206800F5D87000EB0110C068000EA3
:100D5000D87131B92068C06840F020002668F06082
:100D600005E02068006940F020002668306100201E
:100D70004EE7606A40F480206062012048E72DE978
:100D8000F05F04460025206846692068D0F804908A
:100D9000206887682068D0F80CA02068D0F810B0D0
:100DA0002068D0F8188006F00100002855D007F020
:100DB0000100C0B101202168886007F0020018B16D
:100DC000204600F0FCFA0EE007F0040010B145F4F4
:100DD000006508E007F0080010B145F4805502E016
:100DE000204600F0EBFA07F48070C8B14FF4807031
:100DF0002168886007F4007018B1204600F0E1FA1D
:100E00000EE007F4806010B145F4005508E007F4E7
:100E1000006010B145F4804502E0204600F0D0FAB1
:100E200007F48030C8B14FF480302168886007F43F
:100E3000003018B1204600F0C6FA0EE007F480201A
:100E400010B145F4004508E007F4002010B145F466
:100E5000803502E0204600F0B5FA06F0080038B10F
:100E60000AF0100020B145F4007510202168C86018
:100E700006F0040040B10AF0080028B108202168FB
:100E8000C860204600F02EFA06F0020038B1206853
:100E9000C06800F0030010B1204600F025FA06F00B
:100EA000400038B10BF0100020B145F480651020EF
:100EB0002168086106F0200040B10BF0080028B15D
:100EC000082021680861204600F02AFA06F0100088
:100ED00038B12068006900F0030010B1204600F02E
:100EE00021FA06F4003040B109F0100028B11020BA
:100EF00021684860204600F031FA06F4803040B1A5
:100F000009F0080028B1082021684860204600F058
:100F10005BFA06F4004088B309F0040078B306F4E5
:100F2000807020B108F0010008B145F0010506F419
:100F3000007020B108F0020008B145F0020506F487
:100F4000806020B108F0040008B145F0040506F403
:100F50000060A0B108F0700088B108F0700040286F
:100F600017D006DC10280BD020280CD0302819D13F
:100F70000CE0502810D0602814D110E01DE019E0DA
:100F800045F008050FE045F010050CE045F02005A0
:100F900009E045F0400506E045F0800503E045F432
:100FA000807500E000BF00BF2068806920F07000FD
:100FB000216888610420216848602DB1606A284357
:100FC00060622046FFF710FEBDE8F09F70B5044652
:100FD0000CB9012070BD94F8200010B9204600F033
:100FE000AFF82068006840F001002168086000F058
:100FF0006BFB05460DE000F067FB401B0A2808D993
:10100000606A40F400306062052084F8200001200E
:10101000E0E72068406800F001000028EBD020687D
:10102000006820F002002168086000F04DFB0546D2
:101030000DE000F049FB401B0A2808D9606A40F423
:1010400000306062052084F820000120C2E720689B
:10105000406800F002000028EBD1207E012806D174
:101060002068006840F080002168086005E0206882
:10107000006820F0800021680860607E012806D1A9
:101080002068006840F040002168086005E02068A2
:10109000006820F0400021680860A07E012806D189
:1010A0002068006840F020002168086005E02068A2
:1010B000006820F0200021680860E07E012806D149
:1010C0002068006820F010002168086005E02068B2
:1010D000006840F0100021680860207F012806D1D8
:1010E0002068006840F008002168086005E020687A
:1010F000006820F0080021680860607F012806D1A0
:101100002068006840F004002168086005E020685D
:10111000006820F0040021680860D4E90201084357
:1011200021690843616908436168491E08432168D1
:10113000C86100206062012084F82000002049E797
:1011400010B586B00446142101A8FFF7E3F95F4902
:101150002068884252D15E480068401C5C490860A3
:101160000846006801280FD100BF002000905948B0
:10117000006840F00070574908600846006800F0B9
:101180000070009000BF00BF00BF002000905148D9
:101190001038006840F001004E49103908600846D8
:1011A000006800F00100009000BF00BF4FF4C05085
:1011B0000190022002900020039003200490092057
:1011C000059001A9444800F07FF900220521132071
:1011D00000F038FB132000F021FB00220521142031
:1011E00000F030FB142000F019FB0022052115202F
:1011F00000F028FB152000F011FB64E0374920685F
:10120000884260D100BF002000903248006840F062
:101210008060304908600846006800F080600090F7
:1012200000BF00BF2A480068401C294908600846E2
:10123000006801280FD100BF0020009025480068F9
:1012400040F00070234908600846006800F0007014
:10125000009000BF00BF00BF002000901D48103864
:10126000006840F002001B49103908600846006819
:1012700000F00200009000BF00BF6020019002203B
:10128000029000200390032004900920059001A9FA
:10129000134800F019F9002205213F2000F0D2FA8E
:1012A0003F2000F0BBFA00220521402000F0CAFADE
:1012B000402000F0B3FA00220521412000F0C2FADC
:1012C000412000F0ABFA06B010BD00000064004001
:1012D0002C0000204038024000000240006800401E
:1012E000000402407047000010B504460949206818
:1012F00088420ED1084B094A00212046FFF775FCB1
:1013000008B1FFF724FB044B044A00212046FFF7F5
:101310006CFC10BD0068004002000020DC1E0020B4
:101320007047000010B504460949206888420DD175
:10133000084B094A01212046FFF757FC20B905490F
:10134000054802F0DDFA01E0FFF701FB10BD0000E7
:10135000006400400A000020C01E0020704770B5E5
:10136000044694F82000012822D1022084F82000AD
:101370002068006820F001002168086000F0A4F9EE
:1013800005460DE000F0A0F9401B0A2808D9606A64
:1013900040F400306062052084F82000012070BD18
:1013A0002068406800F001000028EBD16062F6E799
:1013B000606A40F4002060620120F0E770477047E7
:1013C0007047704770477047704770B50446A56D09
:1013D00000F07AF9064694F83500022808D08020FB
:1013E000606500BF002084F8340000BF012070BD9C
:1013F0002068006820F016002168086020684069B5
:1014000020F0800021684861206C08B9A06C28B1E8
:101410002068006820F008002168086020680068E3
:1014200020F001002168086010E000F04DF9801BF9
:1014300005280BD920206065032084F8350000BF03
:10144000002084F8340000BF0320D0E72068006843
:1014500000F001000028E8D194F85C103F2088409B
:10146000A860012084F8350000BF002084F8340013
:1014700000BF00BFBBE7014691F83500022803D04A
:101480008020486501207047052081F835000868F4
:10149000006820F001000A6810600020F3E70000F7
:1014A00070B5044600F010F906462546681C10B1D8
:1014B00004480078054400BF00F006F9801BA842EC
:1014C000FAD370BD38000020F8B502460B4600255F
:1014D000002400200021D6E0012606FA01F51E684E
:1014E00006EA0504AC4274D11E7906F00306012E0B
:1014F00004D01E7906F00306022E13D190684F0027
:101500000326BE40B0434F00DE68BE4030439060CB
:10151000506801268E40B0431E79C6F300168E40F7
:10152000304350601E7906F00306032E09D0D068C0
:101530004F000326BE40B0434F009E68BE4030437C
:10154000D0601E7906F00306022E13D1CF0802F1F7
:10155000200656F827004E07F70E0F26BE40B04370
:101560004F07FF0E1E69BE403043CF0802F1200630
:1015700046F8270010684F000326BE40B0431E798E
:1015800006F003064F00BE40304310605E6806F46C
:101590004036002E76D000BF002600963C4E3668BE
:1015A00046F480463A4F3E603E46366806F4804632
:1015B000009600BF00BF374E8F0856F827008E07F1
:1015C000370F0F26BE40B043334EB24202D1002641
:1015D00024E057E0314EB24201D101261EE0304EE8
:1015E000B24201D1022619E02E4EB24201D10326A9
:1015F00014E02D4EB24201D104260FE02B4EB24230
:1016000001D105260AE02A4EB24201D1062605E0A4
:10161000284EB24201D1072600E008268F073F0F6F
:10162000BE4030431B4E8F0846F82700224E3068DC
:10163000A0435E6806F4801606B120431E4E30605B
:10164000361D3068A0435E6806F4001606B12043DC
:10165000194E361D3060184E361F3068A0435E6844
:1016600006F4003606B12043134E361F3060361F95
:101670003068A0435E6806F4803606B120430E4E03
:10168000083E3060491C1029FFF426AFF8BD000069
:101690004438024008380140000002400004024083
:1016A00000080240000C02400010024000140240FA
:1016B00000180240001C0240083C01400AB1816150
:1016C00001E00B0483617047014800687047000027
:1016D00030000020034800680349097808440149A4
:1016E00008607047300000203800002010B50D4819
:1016F000006840F400700B4908600846006840F438
:10170000806008600846006840F48070086003202C
:1017100000F0D6F80F2000F007F800F055F8002090
:1017200010BD0000003C0240F0B587B00446002622
:10173000002700BF002000901E48006840F0010014
:101740001C4908600846006800F00100009000BFD6
:1017500000BF01A902A800F089F900F0BFF9460016
:101760001548B6FBF0F0471E14481549086040F2D2
:10177000E7311348C16047600021016181608161E8
:1017800000F0BEFC054695B90D4800F02DFD05465C
:101790006DB9192000F042F8102C07D20022214622
:1017A000192000F04FF80748046000E001252846A2
:1017B00007B0F0BD4438024040420F000000014035
:1017C000202000203400002008B500BF0020009039
:1017D0001148006840F480400F49086008460068DE
:1017E00000F48040009000BF00BF00BF00200090C8
:1017F000081F006840F08050091F08600846006814
:1018000000F08050009000BF00BF00220F21901E0A
:1018100000F018F808BD00004438024001460846B0
:1018200000280DDB00BF00BF00F01F0301229A401B
:1018300043099B0003F1E023C3F8002100BF00BF70
:1018400000BF70472DE9F05F80460D461646002721
:1018500002F0C0F9074639462A46334601F0070030
:10186000C0F1070ABAF1040F02D94FF0040A01E0EF
:10187000C0F1070AD14600F1040ABAF1070F02D2FB
:101880004FF0000A01E0A0F1030AD4464FF0010A2C
:101890000AFA09FAAAF1010A0AEA020A0AFA0CFA91
:1018A0004FF0010B0BFA0CFBABF1010B0BEA030B36
:1018B0004AEA0B042146404602F094F9BDE8F09F45
:1018C00000BF00F00702064B19684FF6FF031940EE
:1018D000044B0B4343EA0221014B196000BF7047E0
:1018E0000CED00E00000FA0570B504460D460CB999
:1018F000012070BD5848006800F00700A84209D2D6
:1019000055490D700846006800F00700A84201D054
:101910000120EEE7207800F0020002281DD1207897
:1019200000F00400042805D14C48006840F4E05061
:101930004A490860207800F00800082805D1474887
:10194000006840F46040454908604448006820F061
:10195000F000A168084341490860207800F00100C8
:10196000A8B36068012807D13C4808380068C0F374
:101970004040B8B90120BCE76068022802D0606826
:10198000032807D1354808380068C0F3406048B9DB
:101990000120AEE7314808380068C0F3400008B9BC
:1019A0000120A6E72D48006820F003006168084385
:1019B0002A490860FFF788FE064609E0FFF784FE23
:1019C000801B41F28831884202D9032091E707E069
:1019D0002248006800F00C006168B0EB810FEDD187
:1019E0001D48006800F00700A84209D91A490D7087
:1019F0000846006800F00700A84201D0012078E7FF
:101A0000207800F00400042807D11448006820F46E
:101A1000E050E168084311490860207800F00800B0
:101A2000082808D10D48006820F46040216940EA88
:101A3000C1000A49086000F061F808490968C1F36B
:101A40000311074A515CC84006490860064800680F
:101A5000FFF76AFE00204CE7003C024008380240D5
:101A6000F85F00083C000020340000200F220260D4
:101A70000D4A126802F0030242600B4A126802F03B
:101A8000F0028260084A126802F4E052C260064A1C
:101A9000126802F46042D2080261044A126802F03D
:101AA00007020A607047000008380240003C02400C
:101AB00001480068704700003C00002000B5FFF7B7
:101AC000F7FF04490968C1F38221034A515CC84009
:101AD00000BD0000083802400860000800B5FFF7AC
:101AE000E7FF04490968C1F34231034A515CC84029
:101AF00000BD000008380240086000082DE9F047EA
:101B0000002400250026A1462548006800F00C00AE
:101B100020B1042805D008283AD105E0DFF88490E8
:101B200039E0DFF8849036E01D48001F006800F0BF
:101B30003F041B48001F006800F4800078B11A4879
:101B40001749091F0968C1F38811A0FB01700146FC
:101B5000224600233846FEF7E7FB05460EE0114813
:101B60000F49091F0968C1F38811A0FB01700146E4
:101B7000224600233846FEF7D7FB05460848001FDB
:101B80000068C0F30140401C4600B5FBF6F902E0D6
:101B9000DFF8109000BF00BF4846BDE8F0870000A6
:101BA000083802400024F40040787D01F8B504466E
:101BB0000CB90120F8BD207800F00100002874D095
:101BC000F948006800F00C0004280DD0F6480068C1
:101BD00000F00C00082813D1F348001F006800F43F
:101BE0008000B0F5800F0BD1EF4808380068C0F3D3
:101BF0004040002859D06068002856D10120D9E71C
:101C000000BF6068B0F5803F08D1E7480838006839
:101C100040F48030E449083908601EE06068B0F59F
:101C2000A02F0DD1E0480838006840F48020DE493C
:101C3000083908600846006840F4803008600CE00D
:101C4000D9480838006820F48030D749083908603E
:101C50000846006820F48020086000BF606890B1EA
:101C6000FFF732FD054606E0FFF72EFD401B642816
:101C700001D903209EE7CC4808380068C0F34040F3
:101C80000028F1D011E0FFF71FFD054606E0FFF741
:101C90001BFD401B642801D903208BE7C24808388C
:101CA0000068C0F340400028F1D1207800F0020025
:101CB00002285FD1BC48006800F00C0058B1BA4857
:101CC000006800F00C0008281CD1B748001F00680D
:101CD00000F48000B0B9B44808380068C0F3400090
:101CE00020B1E068012801D0012063E7AE48083840
:101CF000006820F0F800216940EAC100AA490839CB
:101D0000086037E0E06800B30120A8490860FFF7E9
:101D1000DBFC054606E0FFF7D7FC401B022801D993
:101D2000032047E7A04808380068C0F340000028B7
:101D3000F1D09D480838006820F0F800216940EA99
:101D4000C10099490839086014E0002097490860EB
:101D5000FFF7BAFC054606E0FFF7B6FC401B022879
:101D600001D9032026E7904808380068C0F34000F6
:101D70000028F1D1207800F0080008282CD16069F3
:101D8000A8B101208A490860FFF79EFC054606E0DD
:101D9000FFF79AFC401B022801D903200AE782487A
:101DA0006C300068C0F340000028F1D014E000203F
:101DB0007F490860FFF788FC054606E0FFF784FCD2
:101DC000401B022801D90320F4E677486C300068F4
:101DD000C0F340000028F1D1207800F0040004286E
:101DE00070D1002770483830006800F0805090B9FA
:101DF00000BF002000906C483830006840F08050F0
:101E00006949383108600846006800F08050009049
:101E100000BF00BF01276748006800F48070B0B9B8
:101E20006448006840F4807062490860FFF74CFC29
:101E3000054606E0FFF748FC401B022801D90320B5
:101E4000B8E65C48006800F480700028F2D000BF5B
:101E5000A068012808D154486830006840F00100AB
:101E60005149683108601DE0A06805280DD14E4831
:101E70006830006840F004004B496831086008464B
:101E8000006840F0010008600CE0474868300068D6
:101E900020F001004449683108600846006820F0DD
:101EA0000400086000BFA068A8B1FFF70DFC05465C
:101EB00009E0FFF709FC401B41F28831884202D952
:101EC000032077E626E0384868300068C0F3400019
:101ED0000028EED013E0FFF7F7FB054608E0FFF718
:101EE000F3FB401B41F28831884201D9032061E6AF
:101EF0002D4868300068C0F340000028EFD1012F62
:101F000007D129483830006820F080502649383100
:101F1000086000BFA069002845D02348006800F091
:101F20000C0008285DD0A069022845D100201F4977
:101F30000866FFF7C9FB054606E0FFF7C5FB401B37
:101F4000022801D9032035E6174808380068C0F395
:101F500040600028F1D1D4E907010843616A40EAF2
:101F600081110122A06AC2EB500041EA00412C20FD
:101F7000005D41EA00600C49091F086001200B491F
:101F80000866FFF7A1FB054606E0FFF79DFB401B37
:101F9000022801D903200DE6034808380068C0F381
:101FA00040600028F1D049E0083802400000474274
:101FB000800E474200700040002021490866FFF76C
:101FC00083FB054606E0FFF77FFB401B022801D993
:101FD0000320EFE51B480068C0F340600028F2D101
:101FE0002CE0A069012800D1E4E51648001D066830
:101FF000A069012820D006F48001E06981421BD14C
:1020000006F03F01206A814216D147F6C070304089
:10201000616AB0EB811F0FD106F440310122A06A42
:10202000C2EB5000B1EB004F06D106F070612C20DE
:10203000005DB1EB006F01D00120BBE50020B9E5E8
:1020400000004742003802407047704730B50246F2
:102050000B4600BF92F83C00012801D1022030BDA0
:10206000012082F83C0000BF022082F83D00106889
:1020700044681068816824F070041868044310688C
:102080004460184D1068A8421BD01068B0F1804F12
:1020900017D0154D1068A84213D0144D1068A842EF
:1020A0000FD0134D1068A8420BD0124D1068A842F3
:1020B00007D0114D1068A84203D0104D1068A842F7
:1020C00005D121F08001586801431068816001202A
:1020D00082F83D0000BF002082F83C0000BF00BF36
:1020E000BDE700000000014000040040000800407F
:1020F000000C004000040140004001400018004076
:1021000010B504460CB9012010BD94F83D0028B963
:10211000002084F83C00204600F026F8022084F8D5
:102120003D00211D206800F0E7FE012084F84600F4
:1021300000BF84F83E0001213F2001554020015599
:102140004120015500BF00BF012084F84200432018
:102150000155442001554520015500BF012084F858
:102160003D000020D0E7000038B504462068B0F1FB
:10217000804F18D100BF002000901948006840F03F
:102180000100174908600846006800F0010000904F
:1021900000BF00BF002205211C20FFF753FB1C20BD
:1021A000FFF73CFB1BE00F492068884217D100BFB6
:1021B000002000900A48006840F0020008490860CA
:1021C0000846006800F00200009000BF00BF002237
:1021D00005211D20FFF736FB1D20FFF71FFB38BD33
:1021E0004038024000040040014691F83D000128BB
:1021F00001D001207047022081F83D000868C068C6
:1022000040F001000B68D8601A4B086898421BD058
:102210000868B0F1804F17D0174B0868984213D068
:10222000164B086898420FD0154B086898420BD09F
:10223000144B0868984207D0134B0868984203D0A3
:10224000124B086898420CD10868806800F00702B9
:10225000062A0CD00868006840F001000B6818607E
:1022600005E00868006840F001000B681860002075
:10227000C0E70000000001400004004000080040EA
:10228000000C0040000401400040014000180040E4
:102290002DE9F04104460D46002700BF94F83C00AC
:1022A000012802D10220BDE8F081012084F83C0021
:1022B00000BF022084F83D002068866826F077067B
:1022C00026F47F46206886602868502833D00CDCCE
:1022D000202850D004DC00284BD0102851D149E0F0
:1022E000302849D040284CD139E060282DD07028C2
:1022F00007D0B0F5805F03D0B0F5005F41D10DE0AD
:1023000041E0D5E902136A68206800F065FE2068A4
:10231000866846F077062068866034E0D5E90213C7
:102320006A68206800F058FE2068806840F48040A9
:102330002168886027E0EA686968206800F060FE2C
:102340005021206800F053FE1DE0EA6869682068AB
:1023500000F069FE6021206800F049FE13E0EA68A1
:102360006968206800F04CFE4021206800F03FFEC4
:1023700009E000BF00BF00BF2968206800F037FEF9
:1023800001E0012700BF00BF012084F83D0000BF2D
:10239000002084F83C0000BF384684E7704770B5E1
:1023A00004462068C5682068066906F00200022815
:1023B00019D105F00200022815D1401F21680861DB
:1023C000012020772068806900F0030018B12046C2
:1023D000FFF7E4FF05E0204600F097F8204600F004
:1023E00095F80020207706F00400042819D105F0A4
:1023F0000400042815D1C043216808610220207719
:102400002068806900F4407018B12046FFF7C6FFCD
:1024100005E0204600F079F8204600F077F800202B
:10242000207706F00800082819D105F008000828D0
:1024300015D1C04321680861042020772068C06955
:1024400000F0030018B12046FFF7A8FF05E0204682
:1024500000F05BF8204600F059F80020207706F0E5
:102460001000102819D105F01000102815D1C04314
:1024700021680861082020772068C06900F4407056
:1024800018B12046FFF78AFF05E0204600F03DF82E
:10249000204600F03BF80020207706F0010048B10C
:1024A00005F0010030B16FF001002168086120469D
:1024B00000F02EF806F08000802809D105F0800099
:1024C000802805D1C043216808612046FFF7BCFD84
:1024D00006F04000402809D105F04000402805D111
:1024E000C04321680861204600F02EF806F0200065
:1024F000202809D105F02000202805D1C0432168FB
:1025000008612046FFF7A1FD70BD704770470000CD
:1025100010B5044609492068884201D1FFF7DAF86E
:1025200007492068884201D100F0EAFF2068B0F135
:10253000804F02D10348FEF7AFF810BD0000014004
:1025400000040040081000207047704770470000EA
:102550002DE9F84F0446206805682068C6682068A1
:1025600047694FF00009CA4605F00F09B9F1000F9D
:102570000AD105F0200038B106F0200020B1204635
:1025800000F0B4FDBDE8F88FB9F1000F7CD007F082
:10259000010018B906F49070002875D005F001000C
:1025A00030B106F4807018B1606C40F001006064D6
:1025B00005F0040030B107F0010018B1606C40F084
:1025C0000200606405F0020030B107F0010018B1AC
:1025D000606C40F00400606405F0080048B106F04B
:1025E000200010B907F0010018B1606C40F008003D
:1025F0006064606C002846D005F0200028B106F029
:10260000200010B1204600F071FD20684069C0F341
:10261000801A606C00F0080010B9BAF1000F2DD0DC
:10262000204600F01DFD2068406900F04000402871
:1026300020D100BF00BF2168143151E8001F21F0F4
:1026400040002168143141E80002002AF3D100BFA4
:10265000E06B50B17F48E16B0865E06BFEF70BFF64
:1026600088B1E06B016D88470DE02046FFF76EFFF3
:1026700009E009E02046FFF769FF04E02046FFF784
:1026800065FF002060647DE7206B012878D105F0AC
:102690001000002874D006F010000028FAD000BF07
:1026A000002000902068006800902068406800903A
:1026B00000BF00BF2068406900F04000402870D192
:1026C000E06B006840681FFA80F8B8F1000F58D03E
:1026D000A08D404555DDA4F82E80E06BC069B0F5B3
:1026E000807F43D000BF00BF21680C3151E8001F3C
:1026F00021F4807021680C3141E80002002AF3D1F6
:1027000000BF00BF00BF2168143151E8001F21F055
:1027100001002168143141E80002002AF3D100BF12
:1027200000BF00BF2168143151E8001F21F04000B4
:102730002168143141E80002002AF3D100BF2020B3
:1027400084F842000020206300BF00BF21680C31E4
:1027500051E8001F21F0100021680C3141E800020F
:10276000002AF3D100BFE06BFEF72FFE022060636A
:10277000A08DE28D801A81B22046FFF7E6FE0EE0C2
:1027800052E0A08D40450AD1E06BC069B0F5807F72
:1027900005D102206063A18D2046FFF7D6FEF1E649
:1027A000FFE7A08DE18D401A1FFA80F8E08DD0B3CD
:1027B000B8F1000F37D000BF00BF21680C3151E8DD
:1027C000001F21F4907021680C3141E80002002ABA
:1027D000F3D100BF00BF00BF2168143151E8001FD2
:1027E00021F001002168143141E80002002AF3D1F0
:1027F00000BF202084F842000020206300BF00BFFB
:1028000021680C3151E8001F21F0100021680C31C3
:1028100041E80002002AF3D100BF02206063414674
:102820002046FFF792FEADE605F0800030B106F0DD
:10283000800018B1204600F00DFEA3E605F0400030
:1028400030B106F0400018B1204600F03FFC99E698
:1028500000BF97E64F30000810B504460CB90120C0
:1028600010BDA06900B100E000BF94F8410028B994
:10287000002084F84000204600F02AF8242084F844
:1028800041002068C06820F400502168C8602046DC
:1028900000F0AAFC2068006920F4904021680861DB
:1028A0002068406920F02A00216848612068C068DB
:1028B00040F400502168C86000206064202084F843
:1028C000410084F842000020606300BFC8E70000B8
:1028D00010B586B00446142101A8FDF71BFE264959
:1028E0002068884245D100BF00200090234800683E
:1028F00040F40030214908600846006800F40030C8
:10290000009000BF00BF00BF002000901B4810389F
:10291000006840F001001949103908600846006855
:1029200000F00100009000BF00BF042001900220D1
:10293000029000200390032004900720059001A935
:102940000F48FEF7C1FD08200190022002900120EF
:102950000390032004900720059001A90848FEF782
:10296000B3FD002205212620FEF76CFF2620FEF78E
:1029700055FF06B010BD0000004400404038024042
:102980000000024070B504460D46164694F8420019
:1029900020280BD105B10EB9012070BD00202063A5
:1029A00032462946204600F035FDF6E70220F4E7DE
:1029B00010B5044607492068884209D106480178C5
:1029C0000648FDF71BFF012203490548FFF7DAFF20
:1029D00010BD0000001001401200002068200020FF
:1029E000D81F0020704700BFFEE7000000B58BB085
:1029F0002248234908600320486000212048816064
:102A0000C1604FF4002101614FF440114161002188
:102A100001764176012181760021C17601774177E7
:102A2000FEF7D4FA08B1FDF792FF00200690079058
:102A30000890019002900390049001200590099065
:102A400001A90F48FEF740F808B1FDF780FF0C48D8
:102A5000FEF785FC08B1FDF77AFF02210848FDF773
:102A600079FF08B1FDF773FF10210548FDF772FFEC
:102A700008B1FDF76CFF0BB000BD00000064004022
:102A8000F81E002000B59FB0444845490860032067
:102A90004860002142488160C1604FF4002101611B
:102AA0004FF4401141610021017641760121817688
:102AB0000021C17601774177FEF788FA08B1FDF76A
:102AC00046FF0E201A9001201B901C904FF40160CD
:102AD000159042F60C0016904FF40160179042F6E4
:102AE000140018900020199001201D900E201E90B7
:102AF00015A92B48FDF7E8FF08B1FDF728FF0F20C7
:102B000010900120119012904FF401600B9042F64A
:102B10002C000C904FF401600D9042F6FC700E906A
:102B200000200F90012013900BA91D48FDF7CCFF4A
:102B300008B1FDF70CFF10200690012007900890C7
:102B40004FF40160019040F6040002904FF40160E0
:102B5000039042F6747004900020059001200990C3
:102B600001A90F48FDF7B0FF08B1FDF7F0FE0C48D2
:102B7000FEF7F5FB08B1FDF7EAFE02210848FDF774
:102B8000E9FE08B1FDF7E3FE10210548FDF7E2FE7E
:102B900008B1FDF7DCFE1FB000BD0000006800407A
:102BA000201F002010B50B4A00210B4801F0F8F956
:102BB0000A4908600A4A00210A4801F0F1F90A4965
:102BC00008600A4A00210A4801F0EAF90949086048
:102BD00010BD0000745F0008393D0008200000208F
:102BE000985F0008793E000824000020BC5F0008C0
:102BF000153C00082800002000B587B0142102A869
:102C0000FDF788FC00BF002001901F48006840F0DD
:102C100080001D4908600846006800F080000190AF
:102C200000BF00BF00BF002001900846006840F0D0
:102C3000010008600846006800F00100019000BF34
:102C400000BF00BF002001900846006840F002006D
:102C500008600846006800F00200019000BF00BF55
:102C600000224FF4E6610948FEF728FD4FF4E660C4
:102C700002900120039000200490059002A90348CF
:102C8000FEF722FC07B000BD3038024000000240D1
:102C900000B587B000200390049005900690019045
:102CA00002904FF0804017490860A720486000213B
:102CB0001448816040F2E731C16000210161816107
:102CC000FFF71EFA08B1FDF742FE4FF48050039063
:102CD00003A90C48FFF7DCFA08B1FDF738FE002025
:102CE0000190029001A90748FFF7B0F908B1FDF77C
:102CF0002EFE0448FFF778FA08B1FDF728FE07B06A
:102D000000BD0000481F002000B587B000200390E0
:102D100004900590069001900290174817490860AA
:102D2000A720486000211548816042F20F71C16000
:102D3000002101618161FFF7E3F908B1FDF707FEAA
:102D40004FF48050039003A90C48FFF7A1FA08B193
:102D5000FDF7FDFD00200190029001A90748FFF753
:102D600075F908B1FDF7F3FD0448FFF73DFA08B126
:102D7000FDF7EDFD07B000BD00040040901F0020EE
:102D800010B50B480B4908604FF4E1304860002152
:102D900008488160C16001610C21416100218161AD
:102DA000C161FFF759FD08B1FDF7D1FD10BD00006D
:102DB00000440040D81F002000BFFEE700BFFEE730
:102DC00010B500224FF400710148FEF777FC10BDEA
:102DD0000000024010B5012251020248FEF76EFCCD
:102DE00010BD00000000024010B54FF0E020006967
:102DF00002F064FE012801D002F0AEFA10BD00001E
:102E000000B593B0302107A8FDF784FB142102A878
:102E1000FDF780FB00BF002001902448006840F0CF
:102E20008050224908600846006800F080500190F8
:102E300000BF00BF00BF002001901D48006840F4A3
:102E400080401B4908600846006800F480400190FB
:102E500000BF00BF012007900004089002200D90E1
:102E600041050E9119210F914FF4A8711091022183
:102E700011910421129107A8FEF798FE08B1FDF701
:102E800066FD0F20029002200390002004904FF472
:102E9000A05005904FF480500690052102A8FEF73F
:102EA00023FD08B1FDF753FD13B000BD40380240CB
:102EB000007000400348006840F470000149086059
:102EC0007047000088ED00E010B50248FFF767FA90
:102ED00010BD00002020002010B50248FFF75FFA67
:102EE00010BD0000481F002010B50248FFF757FA38
:102EF00010BD0000901F002010B502682B4B9842B7
:102F00000ED0B0F1804F0BD0294B984208D0294BFE
:102F1000984205D0284B984202D0284B984203D1C2
:102F200022F070024B681A43204B984220D0B0F137
:102F3000804F1DD01E4B98421AD01E4B984217D07E
:102F40001D4B984214D01D4B984211D01C4B9842F7
:102F50000ED01C4B98420BD01B4B984208D01B4BF9
:102F6000984205D01A4B984202D01A4B984203D18E
:102F700022F44072CB681A4322F080034C6943EA82
:102F800004028B68C3620B688362084B984202D0CC
:102F90000A4B984201D10B690363036843F00403B1
:102FA000036001234361026010BD00000000014086
:102FB0000004004000080040000C004000040140F4
:102FC000004001400044014000480140001800401A
:102FD000001C00400020004030B50C46816821F400
:102FE0007F4142EA032525432943816030BD0A46DB
:102FF000816821F0700142F0070319438160704736
:1030000030B50B461446026A056A25F001050562D3
:10301000816921F0F00141EA041122F00A021A4309
:103020008161026230BD30B50B461446026A056A02
:1030300025F010050562816921F4704141EA0431EF
:1030400022F0A00242EA03128161026230BD70B533
:103050000446A56B0020E8852846FFF777FA70BD87
:1030600000BF00BF02680C3252E8002F22F49071BA
:1030700002680C3242E80013002BF3D100BF00BFFE
:1030800000BF0268143252E8002F22F001010268EA
:10309000143242E80013002BF3D100BF016B012969
:1030A0000ED100BF00BF02680C3252E8002F22F0A0
:1030B000100102680C3242E80013002BF3D100BF6C
:1030C000202180F8421000210163704710B50446AA
:1030D0002068C06820F040002168C860202084F883
:1030E00041002046FFF77EFC002010BDF8B50446E5
:1030F0000025002694F84200222873D1A068B0F57C
:10310000805F0BD1206948B9A66A20684068C0F387
:1031100008003080A06A801CA06214E0A56AA06844
:10312000B0F5805F03D0A06828B9206918B920687D
:103130004068287004E02068406800F07F00287034
:10314000A06A401CA062E08D401E80B2E08500288D
:1031500046D12068C06820F020002168C86020683F
:10316000C06820F480702168C8602068406920F041
:10317000010021684861202084F84200002060633B
:10318000206B012826D10020206300BF00BF2168EA
:103190000C3151E8001F21F0100021680C3141E88A
:1031A0000002002AF3D100BF2068006800F0100080
:1031B00010280AD100BF002000902068006800900D
:1031C00020684068009000BF00BFA18D2046FFF737
:1031D000BCF902E02046FFF7EBFB0020F8BD01E060
:1031E0000020FBE70220F9E72DE9F84F04462068AC
:1031F000006920F44050E1680843216808612169B2
:10320000A068084361690843E169084300902068A9
:10321000C06849F20C618843009908432168C8607E
:103220002068406920F44070A16908432168486122
:1032300076492068884203D075492068884203D1C6
:10324000FEF74CFC814602E0FEF738FC8146E0695F
:10325000B0F5004F6CD102206168A0FB015003461D
:103260001920A9FB007001462A463846FDF75CF894
:103270006421B0FBF1F04FEA001A02206168A0FB64
:1032800001510B461920A9FB00712A463846FDF76B
:103290004BF8834602206168A0FB015003461920C9
:1032A000A9FB00712A463846FDF73EF86421B0FBC1
:1032B000F1F000EBC00101EB0010ABEB800032211C
:1032C00001EBC0006421B0FBF1F000F0F8000AEB64
:1032D000400A02206168A0FB015003461920A9FBA7
:1032E000007001462A463846FDF71EF88346022044
:1032F0006168A0FB015003461920A9FB00712A4612
:103300003846FDF711F86421B0FBF1F000EBC00185
:1033100001EB0010ABEB8000322101EBC000642117
:10332000B0FBF1F000F007005044216888606AE0CB
:1033300004206168A0FB015003461920A9FB00701E
:1033400001462A463846FCF7EFFF824604206168B2
:10335000A0FB015003461920A9FB007001462A4634
:103360003846FCF7E1FF6421B0FBF1F000EBC0014F
:1033700001EB0010AAEB8000322101EB0010642168
:10338000B0FBF1F000F0F00A04206168A0FB0170CE
:1033900003461920A9FB00513A462846FCF7C4FF12
:1033A0006421B0FBF1F00AEB001A04206168A0FB75
:1033B00001510B461920A9FB00712A463846FCF73B
:1033C000B3FF834604206168A0FB01500346192027
:1033D000A9FB007001462A463846FCF7A5FF642188
:1033E000B0FBF1F000EBC00101EB0010ABEB800093
:1033F000322101EB00106421B0FBF1F000F00F006E
:10340000504421688860BDE8F88F0000001001403A
:103410000014014010B5034699629A85DA850020B0
:103420005864222083F84200186928B11868C068DF
:1034300040F480701C68E0601868406940F001004A
:103440001C6860611868C06840F020001C68E0607B
:10345000002010BD014691F84100212828D188683C
:10346000B0F5805F0BD1086948B90A6A1088C0F3CB
:1034700008000B685860086A801C086205E00B6A47
:10348000581C086218780B685860C88C401E80B2BF
:10349000C88458B90868C06820F080000B68D860FC
:1034A0000868C06840F040000B68D8600020704792
:1034B0000220FCE710B50248FFF74AF810BD0000F3
:1034C000D81F002000BFFEE710B588B00446601E7C
:1034D000C0B20290012002AB00221146009003A866
:1034E000FDF762F9DDE90601CDE90001034803A912
:1034F0000EC9FDF719F908B010BD00000810002032
:1035000010B5002444E104EB4400C0EB4410A8498A
:1035100011F8200000287CD004EB4400C0EB4410DC
:1035200001EB80004078002874D004EB4400C0EB2D
:10353000441001EB800090ED130A04EB4400C0EB53
:10354000441001EB800080ED080A04EB4400C0EB5E
:10355000441001EB8000C07830B101281AD0022855
:1035600042D003287ED16CE004EB4400C0EB441051
:103570008F4901EB8000007958B1601CC1B2DFEDCA
:103580008D0A9FED8C0A3D2000F08EFA3D20FFF75A
:103590009BFFE6E004EB4400C0EB4410844901EBE0
:1035A0008000007901280CD0601CC1B2DFED810AD7
:1035B000B7EE000A3D2000F077FA3D20FFF784FFC8
:1035C00011E004EB4400C0EB4410794A02EB8000A8
:1035D000D0ED0D0AB0EE600A601CC1B2DFED750AD5
:1035E000432000F061FABCE004EB4400C0EB44105F
:1035F0006F4901EB8000007902280FD0601CC1B236
:10360000DFED6C0AB0EE000A3D2000F04DFA3D20DF
:1036100001E0A7E0BBE0FFF757FF11E004EB440037
:10362000C0EB4410624A02EB8000D0ED0E0AB0EE0F
:10363000600A601CC1B2DFED5F0A452000F034FA79
:103640008FE004EB4400C0EB4410594901EB8000CB
:10365000007903280ED0601CC1B2DFED560AB0EE2F
:10366000080A00E07CE03D2000F01EFA3D20FFF754
:103670002BFF74E004EB4400C0EB44104C4901EB19
:10368000800090F85800E8BB04EB4400C0EB441005
:1036900001EB800090ED0F0A04EB4400C0EB4410F6
:1036A00001EB8000D0ED0B0A30EE600AB5EEC00AE7
:1036B000F1EE10FA12DD04EB4400C0EB441001EB14
:1036C000800090ED0F0A04EB4400C0EB441001EBC6
:1036D0008000D0ED0B0A30EE600A16E004EB4400E7
:1036E000C0EB4410324901EB800090ED0F0A04EB6F
:1036F0004400C0EB441001EB8000D0ED0B0A30EE2B
:10370000600A00E02BE0B1EE400AF6EE000AB4EEEB
:10371000E00AF1EE10FA22DD04EB4400C0EB4410A5
:10372000234901EB800090ED0F0A04EB4400C0EB4D
:10373000441001EB800080ED0B0A04EB4400C0EB69
:1037400044100A4602EB8000D0ED0F0AB0EE600A8A
:10375000601CC1B2DFED170A472000F0A5F900E0B8
:1037600000BF14E004EB4400C0EB4410104901EB2F
:103770008000007958B1601CC1B2DFED0E0A9FEDE8
:103780000D0A3D2000F090F93D20FFF79DFE641CDE
:103790000A2CFFF6B8AE5F20FFF796FE5D20FFF71C
:1037A00093FE5320FFF790FE3D20FFF78DFE10BDE6
:1037B000381A00200000000010B5002498E0B7EE91
:1037C000000A04EB4400C0EB44104B4901EB8000BD
:1037D00080ED030AB7EE000A04EB4400C0EB44108E
:1037E00001EB800080ED020A04EB4400C0EB4410C2
:1037F00001EB800090ED030A04EB4400C0EB4410A1
:1038000001EB8000D0ED020A20EE200A04EB440018
:10381000C0EB441001EB800080ED040A002004EBB3
:103820004401C1EB4411344A02F8210004EB440185
:10383000C1EB441102EB8101487004EB4401C1EB80
:10384000441102EB8101C8709FED2C0A04EB440087
:10385000C0EB4410114601EB800080ED0E0A9FED95
:10386000270A04EB4400C0EB441001EB800080ED1C
:103870000F0A9FED220A04EB4400C0EB441001EB59
:10388000800080ED0D0A9FED1D0A04EB4400C0EBA3
:10389000441001EB800080ED080A002104EB440095
:1038A000C0EB441002EB800080F85910002004EBBC
:1038B0004401C1EB441102EB810181F85800002161
:1038C00004EB4400C0EB441002EB800080F856107B
:1038D0006420FDF7E5FD601CC1B2DFED080A9FED35
:1038E000070A5F2000F0E0F83D20FFF7EDFD641CC3
:1038F0000A2CFFF664AF10BD381A0020000000004B
:1039000078B5024610780B780A2800DD78BD0025CE
:10391000441E04EB4406C6EB44145F4E06EB8404DD
:1039200084F85650522B3BD006DC3C2B68D0402B01
:103930007AD0462B79D179E05C2B3DD05E2B74D1C7
:10394000441E04EB4405C5EB4414534D05EB8404BD
:10395000D1F80150E564441E04EB4405C5EB441462
:103960004D4D05EB8404D4ED040A9FED4C1A81EE15
:10397000200A441E04EB4405C5EB4414464D05EBF8
:103980008404D4ED130A20EE200A441E04EB4405FF
:10399000C5EB4414404D05EB840484ED130A77E035
:1039A000441E04EB4405C5EB44143B4D05EB840475
:1039B000D1F8015065646BE0441E04EB4405C5EB8F
:1039C0004414354D05EB8404D1F80150A564441E20
:1039D00004EB4405C5EB44142F4D05EB840494ED32
:1039E000120ADFED2F0A20EE200A441E04EB4405E4
:1039F000C5EB4414284D05EB840484ED120A47E01E
:103A0000D1F8014000949DED000ABCEEC00A10EE12
:103A1000104AE5B2441E04EB4406C6EB44141E4EA5
:103A200006EB8404257133E018E030E0D1F8014062
:103A300000949DED000ADFED190A20EE200ADFED6B
:103A4000190A80EE201A441E04EB4405C5EB441409
:103A5000114D05EB840484ED141A19E0D1F80140EE
:103A600000949DED000ABCEEC00A10EE104AE4B2CC
:103A700000EE104AB8EE400A441E04EB4405C5EBC4
:103A80004414054D05EB840484ED140A00E000BFE6
:103A900000BF00BF3AE70000381A00200000B4431E
:103AA000000070423333B34030B52DED028B8BB044
:103AB00005460C46B0EE408AF0EE608A0D2D21D10D
:103AC0009FED400AC8EE000ACDED050A9FED3E0AC3
:103AD000C8EE800ACDED040A059802900498039080
:103AE000082002AB22460021009006A8FCF75CFEED
:103AF000DDE90901CDE90001344806A90EC9FCF74A
:103B000013FE5AE08DED058A452D04D0472D15D0C2
:103B10005F2D39D125E0DFED2C0A88EE200A601EEA
:103B200000EB4001C1EB4010294901EB8000D0EDD2
:103B3000040A20EE200A8DED050A26E0DFED210AB9
:103B400088EE200A601E00EB4001C1EB40102049C6
:103B500001EB8000D0ED040A20EE200A8DED050A6D
:103B600013E0DFED180A88EE200A601E00EB40012A
:103B7000C1EB4010164901EB8000D0ED040A20EEA5
:103B8000200A8DED050A00E000BF00BF8DF80C5043
:103B90000598CDF80D00052003AB224600210090CA
:103BA00006A8FCF701FEDDE90901CDE9000107489F
:103BB00006A90EC9FCF7B8FD00BF0BB0BDEC028B27
:103BC00030BD00000000B443000070420810002027
:103BD000381A002002480068C0F302207047000035
:103BE0000CED00E010B5002804DB0A07130E054AAF
:103BF000135406E00A07140E034A00F00F031B1FBC
:103C0000D45410BD00E400E018ED00E0EFF30580AF
:103C10007047000000BF444800780028FBD100BF77
:103C200016E0002100EB4002C2EB40123F4B03F8CC
:103C3000221000EB4002C2EB401203EB82025170F3
:103C400000EB4002C2EB401203EB8202D170401C39
:103C50000A28E6DB34480078012861D1002017E00B
:103C6000012100EB4002C2EB4012304B03F822105E
:103C700000EB4002C2EB401203EB820251700321C1
:103C800000EB4002C2EB401203EB8202D170401CF9
:103C90000A28E5DB2448407801280AD19FED240A50
:103CA000224880EDF70A9FED220A00F2144080EDD1
:103CB0000F0A1D48807801280FD100200BE09FEDEE
:103CC0001C0A00EB4001C1EB4011184A02EB8101D4
:103CD00081ED0F0A401C0828F1DB1348C078012849
:103CE0000AD19FED140A114880EDF70A9FED110AE1
:103CF00000F2144080ED0F0A0B48007901280FD123
:103D000000200BE09FED0A0A00EB4001C1EB4011DF
:103D1000064A02EB810181ED0F0A401C0828F1DB05
:103D2000012000F0E7F876E770210020381A002023
:103D30000000C8420000C8C28AB000BF44484468BE
:103D40004448844215D1444903C9CDE90301022006
:103D500003AB22460421009005A8FCF725FDDDE910
:103D60000801CDE900013D4805A90EC9FCF7DCFCBE
:103D700000BF3B48844212D172B600BFBFF34F8FE1
:103D80003848006800F4E06037490843001D3549B1
:103D90000860BFF34F8F00BF00BF00BFFDE7304892
:103DA000FE38844250D13148407818BB0020304959
:103DB00008704870C87081F8740000212C4880F8A1
:103DC000751080F877102449083103C9CDE9030143
:103DD000022003AB274A0421009005A8FCF7E4FC6D
:103DE000DDE90801CDE900011C4805A90EC9FCF771
:103DF0009BFC00BF1D484078012825D11C49087054
:103E000048700220C870012081F874000121184810
:103E100080F87510022180F877100F49103103C91E
:103E2000CDE90301022003AB124A0421009005A84A
:103E3000FCF7BAFCDDE90801CDE90001074805A956
:103E40000EC9FCF771FC00BF012000F053F875E7C4
:103E5000DC1E002000010201E05F0008D805002000
:103E6000FF0502010CED00E00000FA050200002051
:103E7000381A00200101020500BF064840790128D8
:103E800003D10548007800F0B9FE012000F032F8B7
:103E9000F3E70000702100201E000020FDF726FC43
:103EA000FEF7AEFFFEF7A8FEFEF7A0FDFEF7EAFD67
:103EB000FEF72AFFFEF7ECFEFEF762FF02220A4839
:103EC00001780A48FCF7DEFB012207480178084820
:103ED000FCF7D8FBFFF770FC00F01CF8FEF762FE61
:103EE00000F02EF800BFFEE700000020D8050020FB
:103EF0000810002070B50546FFF788FE10B16FF07E
:103F0000050404E0002415B1284601F02DF82046F0
:103F100070BD000010B5FFF779FE10B16FF0050419
:103F200009E00648006820B901200449086000241F
:103F300001E04FF0FF34204610BD0000900000204B
:103F400070B5FFF763FE10B16FF005041FE0114874
:103F50000068012819D100BF801F0021002804DB60
:103F60000A07130E0C4A135406E00A07150E0B4AF3
:103F700000F00F031B1FD55400BF00BF02200549EE
:103F8000086001F06DF8002401E04FF0FF34204696
:103F900070BD00009000002000E400E018ED00E09B
:103FA0002DE9FF4780468946144600200390FFF71D
:103FB0002DFE00284ED1B8F1000F4BD04026182519
:103FC0008246471E44B3206808B1D4F800A0A06917
:103FD00000B1A5692DB1382D03D8207900F001007A
:103FE00018B1002004B0BDE8F087606908B16069CD
:103FF0008608A06840B1E068602805D3206918B140
:10400000606908B1012708E0A06830B9E06820B90C
:10401000206910B9002700E00027012F0CD1216989
:10402000A0684B463246CDE90051029051464046C9
:1040300001F0E6FC03900DE067B903A8B2B24B466D
:104040005146CDE90050404601F0A8FC012801D0BE
:10405000002003900398C5E72DE9F04105460E4680
:104060001648076816480068001D00F0F3FD681C3C
:1040700038B936B112480168091D124800F042FEF5
:104080001AE07C190E4800684460BC4207D20C4814
:104090000168091D0C48006800F01AFE0CE0084891
:1040A0000168091D0948006800F012FE0848006810
:1040B000844201D206480460BDE8F081540000202B
:1040C00040000020D82600204800002044000020A6
:1040D0007000002010B5044600F020FE244800685F
:1040E000401C234908602348006840B92148046007
:1040F0000846006801280DD100F0FCF90AE01E48CE
:10410000006838B91B480068C06AE16A884201D873
:104110001848046019480068401C1849086008469F
:104120000068A0641649E06A0968884202D9144907
:10413000E06A0860E16A01EB8101124A02EB81004A
:10414000211D00F0DFFD00F013FE0B48006868B190
:1041500008480068C06AE16A884207D24FF0805080
:1041600009490860BFF34F8FBFF36F8F10BD000088
:1041700050000020400000205C0000206C00002067
:10418000580000202822002004ED00E008B500F0CF
:10419000C5FD12480068E8B9114800F089FD1148D2
:1041A00000F086FD0E48104908600E480F4908606F
:1041B00000200F4B0F4A102100900A2001F0E6F872
:1041C000064908600846006820B10BA10348006852
:1041D00000F08EFE00F0CCFD08BD00008400002041
:1041E000EC260020002700207C000020800000201A
:1041F0001427002064270020546D72510000000035
:1042000010B516E000F08AFD0C48C068C468201D97
:1042100000F020FD0A480068401E0949086009486E
:104220000068401E0749086000F0A2FD204600F02B
:104230005FF8044800680028E4D110BDC4260020BF
:10424000500000204C00002070B504460D46206C44
:1042500070B1216CE0680144E160D4E90210884249
:1042600001D32168E1602846226CE168FCF7D3F8AD
:1042700070BD2DE9F04104460F4615464FF0000889
:10428000A66B206C48B9206800282CD1A06801F0EA
:10429000CDFC80460020A06025E07DB93946226C27
:1042A0006068FCF7B8F8216C606808446060D4E985
:1042B0000101884217D32068606014E03946226CFF
:1042C000E068FCF7A8F8216CE068411AE160216819
:1042D000E068884203D2216CA068411AE160022D97
:1042E00001D106B1761E701CA0634046BDE8F08186
:1042F00010B5044694F85D0030B9206B00F056FD0F
:10430000204600F053FD1AE094F85D00012803D127
:10431000204600F04BFD12E094F85D00022801D128
:10432000012000E0002050B900BF502080F3118828
:10433000BFF34F8FBFF36F8F00BF00BFFEE710BD0D
:104340000146084A126812680AB9012200E00022F8
:104350000A600A6822B9034A1268D268106800E04D
:10436000002070477C00002030B54FF47053174890
:1043700000F007042CB1C01D20F00700134C041BF3
:104380001B1B0246124C22600024114D6C60D01899
:10439000083820F007000F4C206000240D4D2D68D8
:1043A0006C600C4D2D682C601146441A4C60094C11
:1043B00024680C60084D4C682C60084D4C682C60DB
:1043C0004FF00044064D2C6030BD0000C42B00208F
:1043D000940000209C000020A4000020A0000020E9
:1043E000B000002000BFFFF70BFF0648006801285F
:1043F000F9D94FF0805004490860BFF34F8FBFF3E5
:104400006F8FF0E72822002004ED00E02DE9F04155
:1044100006460D4617469846069C0DB9246000E0F6
:104420002760E66325640121204601F01FF884F827
:104430004C80BDE8F0812DE9F05F82460E46904643
:104440009B460A9F0C9C4FEA8801A522206BFCF733
:1044500059F8A8F10100216B01EB800929F0070947
:1044600009F0070008B9012000E0002050B900BFA2
:10447000502080F31188BFF34F8FBFF36F8F00BFC1
:1044800000BFFEE786B1002507E0715D04F134004E
:104490004155705D00B902E06D1C142DF5D300BFCD
:1044A00000214720015502E0002084F83400382F15
:1044B00000D33727E762276500206065201D00F0E4
:1044C00004FC04F1180000F000FC2461C7F138007E
:1044D000A06164620020A06584F85C005A465146E1
:1044E000484600F075FB20600B9808B10B980460FB
:1044F000BDE8F09F10B5002407E004EB84010F4AEB
:1045000002EB810000F0D4FB641C382CF5D30C487E
:1045100000F0CEFB0B4800F0CBFB0B4800F0C8FBD3
:104520000A4800F0C5FB0A4800F0C2FB04480949EC
:10453000086004480849086010BD000028220020D7
:10454000882600209C260020B0260020C4260020BB
:10455000D8260020440000204800002010B5014665
:10456000164800E0006803688B42FBD302464368AC
:1045700013448B4204D143684C6823444360014692
:104580000A464B6813440468A34211D10C4C0368DB
:104590002468A34208D04B680468646823444B60D5
:1045A00003681B680B6005E0054B1B680B6001E0AE
:1045B00003680B60884200D0016010BD94000020A9
:1045C0009C0000202DE9F04104460D4616461F468A
:1045D0004FF0000865602461B5420CD8F01BA1695A
:1045E000884202D34FF0010811E0211D09480068FC
:1045F00000F06EFB0BE0BE4204D2BD4202D34FF08E
:10460000010804E0211D0448006800F061FB4046F9
:10461000BDE8F081800000207C00002070B50546D8
:1046200000F07CFBA86B08B9012400E0002400F036
:104630009FFB204670BD70B5054600F06FFBA86B70
:10464000E96B884201D1012400E0002400F090FBD6
:10465000204670BDF8B505460F461A480068C06888
:10466000C468201D00F0F6FA94F8280000F0040059
:10467000E8B1A06941192B463A462046FFF7A2FF50
:10468000D8B1002003462A4601460090204601F09A
:1046900029FC064656B900BF502080F31188BFF3AD
:1046A0004F8FBFF36F8F00BF00BFFEE705E094F8A8
:1046B000280020F0010084F828002046216A88475D
:1046C000F8BD00007C000020F0B587B0A0E00398A2
:1046D000002811DA04AE56B900BF502080F31188CB
:1046E000BFF34F8FBFF36F8F00BF00BFFEE7D6E968
:1046F0000020B168904700BF03980028E6DB059CC6
:10470000606908B9012000E0002010B9201D00F008
:10471000A1FA02A800F0DEF8054603980A2875D22F
:10472000DFE800F009050739416306083A4200BF97
:1047300000BF00BF00BF94F8280040F0010084F8DB
:1047400028000498A269811803462A462046FFF7EC
:1047500039FFF8B12046216A884794F8280000F014
:104760000400B8B1002000900498A1694218002309
:104770001946204601F0B6FB074657B900BF502046
:1047800080F31188BFF34F8FBFF36F8F00BF00BF5F
:10479000FEE700BF3BE000BF94F8280020F00100D6
:1047A00084F8280033E000BF94F8280040F00100AE
:1047B00084F828000498A061A06908B1012000E0F5
:1047C000002050B900BF502080F31188BFF34F8FF5
:1047D000BFF36F8F00BF00BFFEE7A06941192B46F2
:1047E0002A462046FFF7EEFE11E094F8280000F07C
:1047F000020018B9204600F0D9FA05E094F8280024
:1048000020F0010084F8280001E0FFE700BF00BFAE
:10481000002203A90448006800F0C6FF00287FF4C6
:1048200056AF07B0F0BD000084000020F8B5054683
:104830000C4600F071FC684600F04CF80646009803
:1048400020BB44B9B54206D801F08EFA314628465D
:10485000FFF700FF1CE03CB10E480068006808B993
:10486000012000E000200446A91B22460A480068F7
:1048700000F054FB01F078FA50B94FF0805007492E
:104880000860BFF34F8FBFF36F8F01E001F06CFA48
:10489000F8BD0000800000208400002004ED00E04E
:1048A0000A490968096809B9012100E0002121B11C
:1048B0004FF0FF31064A116006E004490968C968F3
:1048C000C868034A41681160704700004400002036
:1048D0007000002070B5044601F000F90546074855
:1048E0000068854204D200F00BF80120206001E04E
:1048F0000020206001480560284670BD8C00002023
:104900002DE9F84334E025480068C068056823486D
:104910000068C068C468201D00F09CF92046216A28
:10492000884794F8280000F0040008B3A0694619ED
:10493000AE4207D966602461211D1848006800F066
:10494000C7F915E0002003462A460146009020469C
:1049500001F0C8FA074657B900BF502080F311880C
:10496000BFF34F8FBFF36F8F00BF00BFFEE700BFE5
:104970000A480068006808B9012000E0002000280B
:10498000C1D00648D0F80080054800680349086097
:104990000348C0F80080BDE8F88300007C000020D8
:1049A000800000200E480068401C08B9012000E08B
:1049B000002050B900BF502080F31188BFF34F8F03
:1049C000BFF36F8F00BF00BFFEE700BF502080F332
:1049D0001188BFF34F8FBFF36F8F00BF00BFFEE79B
:1049E000B400002008B500BF6846FFF7A9FC0446E4
:1049F00020460099FFF71AFFFFF766FEF4E770B54F
:104A0000044600F08BF994F9455010E0606A08B94B
:104A1000012000E0002038B904F1240001F058F929
:104A200018B100F0DBFA00E003E0681E45B2002D8B
:104A3000ECDC00BFFF2084F8450000F099F900F09D
:104A40006DF994F9445010E0206908B9012000E0A4
:104A5000002048B904F1100001F03AF908B100F063
:104A6000BDFA681E45B200E001E0002DECDC00BF9D
:104A7000FF2084F8440000F07BF970BD2DE9F0417F
:104A800004464FF0000800F047FB4B48006808B9A7
:104A9000FFF76AFC494800682040002870D1D4B173
:104AA000083404F00700B0B104F00700C0F10800BA
:104AB000044404F0070008B9012000E0002050B9C8
:104AC00000BF502080F31188BFF34F8FBFF36F8F6B
:104AD00000BF00BFFEE7002C52D039480068844276
:104AE0004ED8384E3046056801E02E462D6868687D
:104AF000A04202D228680028F7D12F4800688542DA
:104B00003ED0306800F10808286830606868001BF3
:104B1000102819D92F1907F0070008B9012000E063
:104B2000002050B900BF502080F31188BFF34F8F91
:104B3000BFF36F8F00BF00BFFEE76868001B78609F
:104B40006C603846FFF70AFD1D4968680968081A55
:104B50001B490860084600681B490968884203D25F
:104B600017480068184908601449686809680843CC
:104B700068600020286015480068401C13490860E0
:104B800001F0F2F8B8F1000F01D100F08FF808F051
:104B9000070008B9012000E0002050B900BF5020F4
:104BA00080F31188BFF34F8FBFF36F8F00BF00BF3B
:104BB000FEE74046BDE8F0819C000020B0000020E8
:104BC000A000002094000020A4000020A8000020E5
:104BD000001F4FF080730360001F21F0010303608A
:104BE000001F054B036014380260001F6FF00203C2
:104BF0000360203870470000A549000870B50546DD
:104C0000FF2D01DDFF2400E02C46FBF7B9FDFEF788
:104C1000E1F8FEF7D5F8FBF7BDFD00260FE0FBF746
:104C2000AFFDE0B26110B0EB410F02D0FEF7D2F859
:104C300001E0FEF7C5F8FBF7ADFD6410761C042E0D
:104C4000EDDBFBF79DFDFEF7C5F8FEF7B9F8FBF7C6
:104C5000A1FD70BD01460A69D1E901309860D1E932
:104C6000010358605068884201D188685060002074
:104C700008611068401E106010687047034B0360A5
:104C8000034B0B6040231360704700000428002092
:104C900064280020034B0360034B0B6080231360E8
:104CA0007047000064290020C42900207047704725
:104CB00000F1080141604FF0FF31816000F108010F
:104CC000C1600161002101607047002101617047EE
:104CD00010B502460B685C1C0CB9106907E002F1C4
:104CE000080000E04068446824689C42FAD944689F
:104CF0004C604C68A160886041600A611468641C63
:104D0000146010BD42684A6093688B609368596074
:104D10009160086103685B1C0360704700BF50200E
:104D200080F31188BFF34F8FBFF36F8F00BF0E4822
:104D30000068401C0C49086008460068012812D130
:104D40000A480068C0B208B9012000E0002050B94C
:104D500000BF502080F31188BFF34F8FBFF36F8FD8
:104D600000BF00BFFEE77047B400002004ED00E084
:104D70000D48006850B900BF502080F31188BFF380
:104D80004F8FBFF36F8F00BF00BFFEE7064800687C
:104D9000401E054908600846006820B9002080F3DD
:104DA000118800BF00BF7047B400002070B50646F0
:104DB0003546002E44D0083D2C46224960680968DB
:104DC000084008B1012000E0002050B900BF502089
:104DD00080F31188BFF34F8FBFF36F8F00BF00BF09
:104DE000FEE7206808B9012000E0002050B900BFAC
:104DF000502080F31188BFF34F8FBFF36F8F00BF38
:104E000000BFFEE70F49606809680840C0B120682C
:104E1000B0B90C49606809688843606000F07CF9AB
:104E20000949606809680844074908602046FFF797
:104E300095FB06480068401C0449086000F094FF98
:104E400070BD0000B0000020A0000020AC000020D9
:104E500000204FF0E02108618861064800684FF4A7
:104E60007A71B0FBF1F0401E4FF0E021486107205D
:104E7000086170473C00002070B5FBF731FA04462A
:104E8000102C16D304F1E02090F8F0531548007868
:104E9000854201DB012000E0002050B900BF502016
:104EA00080F31188BFF34F8FBFF36F8F00BF00BF38
:104EB000FEE70D48006800F4E0600C49096888428C
:104EC00001D8012000E0002050B900BF502080F33D
:104ED0001188BFF34F8FBFF36F8F00BF00BFFEE796
:104EE00070BD0000B80000200CED00E0BC00002008
:104EF000024600200BE0084B53F8303033B9064B24
:104F000043F8301003EBC0035A6002E0401C08284D
:104F1000F1D300BF70470000E82100202DE9F041E7
:104F200005460E4617462C46FFF7F8FE94F9440056
:104F3000401C10B9002084F8440094F94500401C3E
:104F400010B9002084F84500FFF712FFA06B28B9C4
:104F50003A46314604F1240000F062F82046FFF79B
:104F60004EFDBDE8F081000070B504460025D4B1C7
:104F70001248006808B9012000E0002050B900BFC5
:104F8000502080F31188BFF34F8FBFF36F8F00BFA6
:104F900000BFFEE700F0C0F800212046FFF75CF8F4
:104FA00000F0E2FE05463DB94FF08050044908602C
:104FB000BFF34F8FBFF36F8F70BD000078000020EC
:104FC00004ED00E003490968016003490968416094
:104FD00070470000680000205400002001200149B3
:104FE000086070476400002070B504460D4654B94F
:104FF00000BF502080F31188BFF34F8FBFF36F8F36
:1050000000BF00BFFEE70548016818312046FFF7E2
:105010005FFE01212846FFF71FF870BD4000002009
:1050200070B505460E46144655B900BF502080F3B2
:105030001188BFF34F8FBFF36F8F00BF00BFFEE734
:105040000648016818312846FFF75CFE0CB14FF0A6
:10505000FF3621463046FEF7FFFF70BD40000020BE
:1050600010B586B000200590049003AA04A905A8F5
:10507000FFF704FE0022DDE904101346CDE900210C
:1050800002901EA11F48039A00F0BAFC1E49086056
:105090000846006808B1012400E00024012C02D178
:1050A00000F0E4FE0446012C15D100BF502080F32F
:1050B0001188BFF34F8FBFF36F8F00BF4FF0FF30EA
:1050C0001249086001201249086000201149086057
:1050D00000F08EF810E0601C08B1012000E0002014
:1050E00050B900BF502080F31188BFF34F8FBFF33A
:1050F0006F8F00BF00BFFEE706B010BD49444C45AE
:1051000000000000E543000874000020700000204B
:105110005C0000205400002002480068401C014947
:10512000086070477800002070B52C48006818B1FE
:1051300001202B4908604FE00020294908602948D8
:105140000068046B4FF0A5352068B0F1A53F0BD186
:105150006068B0F1A53F07D1A068B0F1A53F03D1C9
:10516000E068B0F1A53F05D01E4801683431006801
:10517000FFF79DFD1C4801680CE051B900BF5020AD
:1051800080F31188BFF34F8FBFF36F8F00BF00BF55
:10519000FEE7491E01EB8100144A52F8200008B9CD
:1051A000012000E000200028E7D101EB81020F4B35
:1051B00003EB820042685268426000F108024368D3
:1051C000934202D14268526842604268D268054BFD
:1051D0001A600548016000BF70BD00007800002023
:1051E00064000020400000205800002028220020F9
:1051F0001CB5524800685249884201D0012000E0A5
:10520000002050B900BF502080F31188BFF34F8FAA
:10521000BFF36F8F00BF00BFFEE7484800684849F2
:10522000491E884201D0012000E0002050B900BF93
:10523000502080F31188BFF34F8FBFF36F8F00BFF3
:1052400000BFFEE73F49084600780190FF200A466C
:1052500010700846007800909DF8000000F0F00003
:105260009DF80020904201D1012000E0002050B9BB
:1052700000BF502080F31188BFF34F8FBFF36F8FB3
:1052800000BF00BFFEE79DF8000000F050002E4A6E
:10529000107007202D4A106009E02C480068401E5D
:1052A0002A4A10609DF800004006000E00909DF80C
:1052B000000000F080008028EFD024480068C0F192
:1052C0000700042801D1012000E0002050B900BFF0
:1052D000502080F31188BFF34F8FBFF36F8F00BF53
:1052E00000BFFEE7194800680002184A1060104627
:1052F000008800F4E0601060124A019810700F48B6
:105300002030006840F470000C49203108600846E5
:10531000006840F070400860FFF79AFD00200C49DB
:105320000860FAF7A5FF0B48006840F040400949C3
:105330000860FAF789FF00201CBD000000ED00E0C6
:1053400071C20F4100E400E0B8000020BC00002062
:10535000B400002034EF00E010B500BF502080F30F
:105360001188BFF34F8FBFF36F8F00BF00F0BCFBFE
:1053700018B14FF080500449086000BF002080F34E
:10538000118800BF10BD000004ED00E02DE9F843D6
:1053900080460E4617461D46DDF82090B8F1000FF6
:1053A00001D0012000E0002050B900BF502080F360
:1053B0001188BFF34F8FBFF36F8F00BF00BFFEE7B1
:1053C0000DB1012000E0002050B900BF502080F353
:1053D0001188BFF34F8FBFF36F8F00BF00BFFEE791
:1053E00007B10EB1012000E0002050B900BF5020ED
:1053F00080F31188BFF34F8FBFF36F8F00BF00BFE3
:10540000FEE707B90EB9012000E0002050B900BF47
:10541000502080F31188BFF34F8FBFF36F8F00BF11
:1054200000BFFEE7502000900098502801D10120D5
:1054300000E0002050B900BF502080F31188BFF376
:105440004F8FBFF36F8F00BF00BFFEE700BF2C463A
:105450004CB1012084F846004B463A46314640465E
:105460000094FEF7D3FF2046BDE8F88370B50546EB
:105470000E462C4654B900BF502080F31188BFF36C
:105480004F8FBFF36F8F00BF00BFFEE7FFF746FCF3
:10549000D4E90F12206801FB0200A0600020A06385
:1054A00020686060E06B401E226C216800FB0211E6
:1054B000E160FF2084F8440084F845009EB920692B
:1054C00008B9012000E00020A8B904F1100000F0A4
:1054D000FFFB80B14FF0805009490860BFF34F8F48
:1054E000BFF36F8F07E004F11000FFF7E1FB04F159
:1054F0002400FFF7DDFBFFF73BFC012070BD00003F
:1055000004ED00E02DE9FF4383B0064688461D46C2
:105510004FF00009344654B900BF502080F3118881
:10552000BFF34F8FBFF36F8F00BF00BFFEE7B8F12F
:10553000000F01D1206C08B9012000E0002050B913
:1055400000BF502080F31188BFF34F8FBFF36F8FE0
:1055500000BF00BFFEE7022D02D1E06B012801D1A0
:10556000012000E0002050B900BF502080F31188D6
:10557000BFF34F8FBFF36F8F00BF00BFFEE700F098
:105580009DFA08B9059808B9012000E0002050B93B
:1055900000BF502080F31188BFF34F8FBFF36F8F90
:1055A00000BF00BFFEE700BFFFF7B8FBA06BE16BD9
:1055B000884201D3022D28D12A4641462046FEF7D3
:1055C00058FE0746606A08B9012000E0002068B96B
:1055D00004F1240000F07CFB88B14FF08050324988
:1055E0000860BFF34F8FBFF36F8F08E03FB14FF0FC
:1055F00080502D490860BFF34F8FBFF36F8FFFF7C7
:10560000B7FB012007B0BDE8F083059818B9FFF794
:10561000AFFB0020F6E7B9F1000F04D101A8FFF7B6
:10562000D1FC4FF00109FFF7A3FBFFF775FDFFF772
:1056300075FB94F94400401C10B9002084F8440024
:1056400094F94500401C10B9002084F84500FFF78C
:105650008FFB05A901A800F05BF9F0B92046FEF721
:10566000EAFFA0B104F110000599FFF7BDFC204648
:10567000FFF7C5F900F078FB002895D14FF0805076
:1056800009490860BFF34F8FBFF36F8F8CE7204647
:10569000FFF7B5F900F068FB86E72046FFF7AFF9A2
:1056A00000F062FB0020ADE704ED00E02DE9F84FCB
:1056B00007468A4690461E463C4654B900BF5020D5
:1056C00080F31188BFF34F8FBFF36F8F00BF00BF10
:1056D000FEE7BAF1000F01D1206C08B9012000E00B
:1056E000002050B900BF502080F31188BFF34F8FC6
:1056F000BFF36F8F00BF00BFFEE7022E02D1E06B49
:10570000012801D1012000E0002050B900BF502045
:1057100080F31188BFF34F8FBFF36F8F00BF00BFBF
:10572000FEE7FFF7A9FB00BF5021EFF3118081F3E3
:105730001188BFF34F8FBFF36F8F00BF0546A06B7B
:10574000E16B884201D3022E25D194F945B0A06BBC
:105750000090324651462046FEF78BFD0BF10100CA
:1057600088B9606A08B9012000E0002050B904F14E
:10577000240000F0ADFA28B1B8F1000F02D00120EA
:10578000C8F8000004E00BF1010040B284F84500C5
:105790004FF0010901E04FF0000900BF85F31188C7
:1057A00000BF4846BDE8F88F2DE9F74183B00546B4
:1057B0000E464FF000082C4654B900BF502080F32D
:1057C0001188BFF34F8FBFF36F8F00BF00BFFEE79D
:1057D0000EB9206C08B9012000E0002050B900BFCC
:1057E000502080F31188BFF34F8FBFF36F8F00BF3E
:1057F00000BFFEE700F062F908B9059808B901207A
:1058000000E0002050B900BF502080F31188BFF3A2
:105810004F8FBFF36F8F00BF00BFFEE700BFFFF7E2
:105820007DFAA76BF7B131462046FEF70DFD781ED5
:10583000A063206908B9012000E0002060B904F1EC
:10584000100000F045FA38B14FF080502F49086041
:10585000BFF34F8FBFF36F8FFFF78AFA012006B0B7
:10586000BDE8F081059818B9FFF782FA0020F6E745
:10587000B8F1000F04D101A8FFF7A4FB4FF0010815
:10588000FFF776FAFFF748FCFFF748FA94F944006F
:10589000401C10B9002084F8440094F94500401CD5
:1058A00010B9002084F84500FFF762FA05A901A8A5
:1058B00000F02EF8F0B92046FEF7B0FEA0B104F1DA
:1058C00024000599FFF790FB2046FFF798F800F0B9
:1058D0004BFA0028A3D14FF080500C490860BFF369
:1058E0004F8FBFF36F8F9AE72046FFF788F800F0DD
:1058F0003BFA94E72046FFF782F800F035FA20469D
:10590000FEF78CFE00288AD00020A8E704ED00E016
:1059100070B505460C4655B900BF502080F311887C
:10592000BFF34F8FBFF36F8F00BF00BFFEE754B9C7
:1059300000BF502080F31188BFF34F8FBFF36F8FEC
:1059400000BF00BFFEE7FFF7E9F912480268686888
:10595000131A2068401C08B9002617E00E49286871
:105960000968884204D06868904201D801260DE099
:105970002068984207D92068C01A20602846FFF79F
:1059800021FB002602E0002020600126FFF7F0F94D
:10599000304670BD54000020680000202DE9FF4F04
:1059A00085B0804689461746DDE912ABB800FFF79F
:1059B00065F8064656B16020FFF760F804460CB162
:1059C000266304E03046FFF7F1F900E000248CB1D3
:1059D000002084F85D00CDE900ABCDE902403A46F5
:1059E00049464046089BFEF726FD2046FEF772FB1F
:1059F000012501E04FF0FF35284609B0BDE8F08FE2
:105A00002DE9F04F85B00746884691469A46DDE974
:105A10000EB6109C0EB1012000E0002050B900BF6E
:105A2000502080F31188BFF34F8FBFF36F8F00BFFB
:105A300000BFFEE70CB1012000E0002050B900BF1C
:105A4000502080F31188BFF34F8FBFF36F8F00BFDB
:105A500000BFFEE7602003900398602801D1012079
:105A600000E0002050B900BF502080F31188BFF340
:105A70004F8FBFF36F8F00BF00BFFEE700BFB4B111
:105A8000AEB125462C462E63022085F85D0000202D
:105A900004A953464A46CDE900B1CDE9025041463A
:105AA0003846FEF7C8FC2846FEF714FB01E000204C
:105AB0000490049805B0BDE8F08F0000054909681E
:105AC00009B9012005E00449096809B9022000E08C
:105AD000002070475C000020780000200149086821
